{
    "_format": "hh-sol-artifact-1",
    "contractName": "BookLibrary",
    "sourceName": "contracts/book-library.sol",
    "abi": [
        {
            "anonymous": false,
            "inputs": [
                {
                    "indexed": false,
                    "internalType": "address",
                    "name": "borrower",
                    "type": "address"
                }
            ],
            "name": "LogBookBorrowed",
            "type": "event"
        },
        {
            "anonymous": false,
            "inputs": [
                {
                    "indexed": false,
                    "internalType": "string",
                    "name": "name",
                    "type": "string"
                },
                {
                    "indexed": false,
                    "internalType": "uint256",
                    "name": "copies",
                    "type": "uint256"
                }
            ],
            "name": "LogBookCreated",
            "type": "event"
        },
        {
            "anonymous": false,
            "inputs": [
                {
                    "indexed": true,
                    "internalType": "address",
                    "name": "previousOwner",
                    "type": "address"
                },
                {
                    "indexed": true,
                    "internalType": "address",
                    "name": "newOwner",
                    "type": "address"
                }
            ],
            "name": "OwnershipTransferred",
            "type": "event"
        },
        {
            "inputs": [
                {
                    "internalType": "string",
                    "name": "name",
                    "type": "string"
                },
                {
                    "internalType": "uint256",
                    "name": "copies",
                    "type": "uint256"
                }
            ],
            "name": "addBook",
            "outputs": [],
            "stateMutability": "nonpayable",
            "type": "function"
        },
        {
            "inputs": [
                {
                    "internalType": "uint256",
                    "name": "",
                    "type": "uint256"
                }
            ],
            "name": "books",
            "outputs": [
                {
                    "internalType": "uint256",
                    "name": "id",
                    "type": "uint256"
                },
                {
                    "internalType": "string",
                    "name": "name",
                    "type": "string"
                },
                {
                    "internalType": "uint256",
                    "name": "availableBooksInStore",
                    "type": "uint256"
                }
            ],
            "stateMutability": "view",
            "type": "function"
        },
        {
            "inputs": [
                {
                    "internalType": "uint256",
                    "name": "_id",
                    "type": "uint256"
                }
            ],
            "name": "borrowBook",
            "outputs": [],
            "stateMutability": "nonpayable",
            "type": "function"
        },
        {
            "inputs": [],
            "name": "getBooksLength",
            "outputs": [
                {
                    "internalType": "uint256",
                    "name": "",
                    "type": "uint256"
                }
            ],
            "stateMutability": "view",
            "type": "function"
        },
        {
            "inputs": [],
            "name": "owner",
            "outputs": [
                {
                    "internalType": "address",
                    "name": "",
                    "type": "address"
                }
            ],
            "stateMutability": "view",
            "type": "function"
        },
        {
            "inputs": [],
            "name": "renounceOwnership",
            "outputs": [],
            "stateMutability": "nonpayable",
            "type": "function"
        },
        {
            "inputs": [
                {
                    "internalType": "uint256",
                    "name": "_index",
                    "type": "uint256"
                }
            ],
            "name": "returnBook",
            "outputs": [],
            "stateMutability": "nonpayable",
            "type": "function"
        },
        {
            "inputs": [
                {
                    "internalType": "address",
                    "name": "newOwner",
                    "type": "address"
                }
            ],
            "name": "transferOwnership",
            "outputs": [],
            "stateMutability": "nonpayable",
            "type": "function"
        },
        {
            "inputs": [
                {
                    "internalType": "uint256",
                    "name": "",
                    "type": "uint256"
                }
            ],
            "name": "userAddresses",
            "outputs": [
                {
                    "internalType": "address",
                    "name": "",
                    "type": "address"
                }
            ],
            "stateMutability": "view",
            "type": "function"
        },
        {
            "inputs": [
                {
                    "internalType": "address",
                    "name": "",
                    "type": "address"
                },
                {
                    "internalType": "uint256",
                    "name": "",
                    "type": "uint256"
                }
            ],
            "name": "userBook",
            "outputs": [
                {
                    "internalType": "uint256",
                    "name": "id",
                    "type": "uint256"
                },
                {
                    "internalType": "uint256",
                    "name": "copiesTaken",
                    "type": "uint256"
                }
            ],
            "stateMutability": "view",
            "type": "function"
        }
    ],
    "bytecode": "0x608060405234801561001057600080fd5b5061001a3361001f565b61006f565b600080546001600160a01b038381166001600160a01b0319831681178455604051919092169283917f8be0079c531659141344cd1fd0a4f28419497f9722a3daafe3b4186f6b6457e09190a35050565b610ca58061007e6000396000f3fe608060405234801561001057600080fd5b506004361061009e5760003560e01c80638da5cb5b116100665780638da5cb5b14610125578063b157900014610136578063b2adb3db1461015e578063ca5140c91461016f578063f2fde38b1461018257600080fd5b8063502c9bd5146100a3578063637a3872146100d357806368744046146100e8578063715018a61461010a5780637e490a9e14610112575b600080fd5b6100b66100b13660046108ed565b610195565b6040516001600160a01b0390911681526020015b60405180910390f35b6100e66100e136600461091c565b6101bf565b005b6100fb6100f63660046108ed565b61029d565b6040516100ca93929190610a17565b6100e661035b565b6100e66101203660046108ed565b61036f565b6000546001600160a01b03166100b6565b610149610144366004610a5c565b6105d8565b604080519283526020830191909152016100ca565b6001546040519081526020016100ca565b6100e661017d3660046108ed565b610614565b6100e6610190366004610a86565b6107ca565b600381815481106101a557600080fd5b6000918252602090912001546001600160a01b0316905081565b6101c7610843565b6040805160608101825260018054808352602083018681529383018590528082018255600091909152815160039091027fb10e2d527612073b26eecdfd717e6a320cf44b4afac2b0732d9fcbe2b7fa0cf681019182559251919283927fb10e2d527612073b26eecdfd717e6a320cf44b4afac2b0732d9fcbe2b7fa0cf7909101906102529082610b31565b506040820151816002015550507fcff3dadd136829013fc820944e2c686e0be2cfe152ba6b7cba4a0a0de2ed174c8383604051610290929190610bf1565b60405180910390a1505050565b600181815481106102ad57600080fd5b600091825260209091206003909102018054600182018054919350906102d290610aa8565b80601f01602080910402602001604051908101604052809291908181526020018280546102fe90610aa8565b801561034b5780601f106103205761010080835404028352916020019161034b565b820191906000526020600020905b81548152906001019060200180831161032e57829003601f168201915b5050505050908060020154905083565b610363610843565b61036d600061089d565b565b60015481106103bb5760405162461bcd60e51b8152602060048201526013602482015272426f6f6b20646f65736e27742065786973742160681b60448201526064015b60405180910390fd5b6000600182815481106103d0576103d0610c13565b9060005260206000209060030201600201541161043f5760405162461bcd60e51b815260206004820152602760248201527f546865726520617265206e6f20617661696c61626c6520626f6f6b73206375726044820152663932b73a363c9760c91b60648201526084016103b2565b336000908152600260205260408120815b81548110156104d3578382828154811061046c5761046c610c13565b906000526020600020906002020160000154036104c15781818154811061049557610495610c13565b6000918252602082206001600290920201018054916104b383610c3f565b9190505550600192506104d3565b806104cb81610c3f565b915050610450565b5033600090815260026020526040812054900361052d57600380546001810182556000919091527fc2575a0e9e593c00f959f8c92f12db2869c3395a3b0502d05e2516446f71f85b0180546001600160a01b031916331790555b81610572573360009081526002602081815260408084208151808301909252878252600182840181815282548083018455928752939095209151930201918255519101555b6001838154811061058557610585610c13565b6000918252602082206002600390920201018054916105a383610c58565b90915550506040513381527f3d06660bf57fc752a38324194559df69c4101d905d1f203d009e4ae88aa04e1c90602001610290565b600260205281600052604060002081815481106105f457600080fd5b600091825260209091206002909102018054600190910154909250905082565b3360009081526002602052604090205481106106815760405162461bcd60e51b815260206004820152602660248201527f426f6f6b20646f65736e277420657869737420696e20796f757220636f6c6c656044820152656374696f6e2160d01b60648201526084016103b2565b3360009081526002602052604081208054839081106106a2576106a2610c13565b906000526020600020906002020160010154116107195760405162461bcd60e51b815260206004820152602f60248201527f596f75206e65656420746f206164642074686520626f6f6b20696e206f72646560448201526e7220746f2072657475726e2069742160881b60648201526084016103b2565b33600090815260026020526040902080548290811061073a5761073a610c13565b60009182526020822060016002909202010180549161075883610c58565b90915550503360009081526002602052604090208054600191908390811061078257610782610c13565b906000526020600020906002020160000154815481106107a4576107a4610c13565b6000918252602082206002600390920201018054916107c283610c3f565b919050555050565b6107d2610843565b6001600160a01b0381166108375760405162461bcd60e51b815260206004820152602660248201527f4f776e61626c653a206e6577206f776e657220697320746865207a65726f206160448201526564647265737360d01b60648201526084016103b2565b6108408161089d565b50565b6000546001600160a01b0316331461036d5760405162461bcd60e51b815260206004820181905260248201527f4f776e61626c653a2063616c6c6572206973206e6f7420746865206f776e657260448201526064016103b2565b600080546001600160a01b038381166001600160a01b0319831681178455604051919092169283917f8be0079c531659141344cd1fd0a4f28419497f9722a3daafe3b4186f6b6457e09190a35050565b6000602082840312156108ff57600080fd5b5035919050565b634e487b7160e01b600052604160045260246000fd5b6000806040838503121561092f57600080fd5b823567ffffffffffffffff8082111561094757600080fd5b818501915085601f83011261095b57600080fd5b81358181111561096d5761096d610906565b604051601f8201601f19908116603f0116810190838211818310171561099557610995610906565b816040528281528860208487010111156109ae57600080fd5b826020860160208301376000602093820184015298969091013596505050505050565b6000815180845260005b818110156109f7576020818501810151868301820152016109db565b506000602082860101526020601f19601f83011685010191505092915050565b838152606060208201526000610a3060608301856109d1565b9050826040830152949350505050565b80356001600160a01b0381168114610a5757600080fd5b919050565b60008060408385031215610a6f57600080fd5b610a7883610a40565b946020939093013593505050565b600060208284031215610a9857600080fd5b610aa182610a40565b9392505050565b600181811c90821680610abc57607f821691505b602082108103610adc57634e487b7160e01b600052602260045260246000fd5b50919050565b601f821115610b2c57600081815260208120601f850160051c81016020861015610b095750805b601f850160051c820191505b81811015610b2857828155600101610b15565b5050505b505050565b815167ffffffffffffffff811115610b4b57610b4b610906565b610b5f81610b598454610aa8565b84610ae2565b602080601f831160018114610b945760008415610b7c5750858301515b600019600386901b1c1916600185901b178555610b28565b600085815260208120601f198616915b82811015610bc357888601518255948401946001909101908401610ba4565b5085821015610be15787850151600019600388901b60f8161c191681555b5050505050600190811b01905550565b604081526000610c0460408301856109d1565b90508260208301529392505050565b634e487b7160e01b600052603260045260246000fd5b634e487b7160e01b600052601160045260246000fd5b600060018201610c5157610c51610c29565b5060010190565b600081610c6757610c67610c29565b50600019019056fea264697066735822122049a62d45462f9155fe5fdabeebbab770bd07a8c3dab893b8e086630d37c83d8164736f6c63430008110033",
    "linkReferences": {},
    "deployedLinkReferences": {}
}